{
  "address": "0x009f73904E45ec46d05e239613AB8753c4a6F2b0",
  "abi": [
    {
      "inputs": [
        {
          "internalType": "address",
          "name": "initialOwner",
          "type": "address"
        },
        {
          "internalType": "string",
          "name": "_name",
          "type": "string"
        },
        {
          "internalType": "string",
          "name": "_symbol",
          "type": "string"
        },
        {
          "internalType": "uint256",
          "name": "_royalties",
          "type": "uint256"
        }
      ],
      "stateMutability": "nonpayable",
      "type": "constructor"
    },
    {
      "inputs": [],
      "name": "ERC721EnumerableForbiddenBatchMint",
      "type": "error"
    },
    {
      "inputs": [
        {
          "internalType": "address",
          "name": "sender",
          "type": "address"
        },
        {
          "internalType": "uint256",
          "name": "tokenId",
          "type": "uint256"
        },
        {
          "internalType": "address",
          "name": "owner",
          "type": "address"
        }
      ],
      "name": "ERC721IncorrectOwner",
      "type": "error"
    },
    {
      "inputs": [
        {
          "internalType": "address",
          "name": "operator",
          "type": "address"
        },
        {
          "internalType": "uint256",
          "name": "tokenId",
          "type": "uint256"
        }
      ],
      "name": "ERC721InsufficientApproval",
      "type": "error"
    },
    {
      "inputs": [
        {
          "internalType": "address",
          "name": "approver",
          "type": "address"
        }
      ],
      "name": "ERC721InvalidApprover",
      "type": "error"
    },
    {
      "inputs": [
        {
          "internalType": "address",
          "name": "operator",
          "type": "address"
        }
      ],
      "name": "ERC721InvalidOperator",
      "type": "error"
    },
    {
      "inputs": [
        {
          "internalType": "address",
          "name": "owner",
          "type": "address"
        }
      ],
      "name": "ERC721InvalidOwner",
      "type": "error"
    },
    {
      "inputs": [
        {
          "internalType": "address",
          "name": "receiver",
          "type": "address"
        }
      ],
      "name": "ERC721InvalidReceiver",
      "type": "error"
    },
    {
      "inputs": [
        {
          "internalType": "address",
          "name": "sender",
          "type": "address"
        }
      ],
      "name": "ERC721InvalidSender",
      "type": "error"
    },
    {
      "inputs": [
        {
          "internalType": "uint256",
          "name": "tokenId",
          "type": "uint256"
        }
      ],
      "name": "ERC721NonexistentToken",
      "type": "error"
    },
    {
      "inputs": [
        {
          "internalType": "address",
          "name": "owner",
          "type": "address"
        },
        {
          "internalType": "uint256",
          "name": "index",
          "type": "uint256"
        }
      ],
      "name": "ERC721OutOfBoundsIndex",
      "type": "error"
    },
    {
      "inputs": [
        {
          "internalType": "address",
          "name": "owner",
          "type": "address"
        }
      ],
      "name": "OwnableInvalidOwner",
      "type": "error"
    },
    {
      "inputs": [
        {
          "internalType": "address",
          "name": "account",
          "type": "address"
        }
      ],
      "name": "OwnableUnauthorizedAccount",
      "type": "error"
    },
    {
      "anonymous": false,
      "inputs": [
        {
          "indexed": true,
          "internalType": "address",
          "name": "owner",
          "type": "address"
        },
        {
          "indexed": true,
          "internalType": "address",
          "name": "approved",
          "type": "address"
        },
        {
          "indexed": true,
          "internalType": "uint256",
          "name": "tokenId",
          "type": "uint256"
        }
      ],
      "name": "Approval",
      "type": "event"
    },
    {
      "anonymous": false,
      "inputs": [
        {
          "indexed": true,
          "internalType": "address",
          "name": "owner",
          "type": "address"
        },
        {
          "indexed": true,
          "internalType": "address",
          "name": "operator",
          "type": "address"
        },
        {
          "indexed": false,
          "internalType": "bool",
          "name": "approved",
          "type": "bool"
        }
      ],
      "name": "ApprovalForAll",
      "type": "event"
    },
    {
      "anonymous": false,
      "inputs": [
        {
          "indexed": false,
          "internalType": "uint256",
          "name": "_fromTokenId",
          "type": "uint256"
        },
        {
          "indexed": false,
          "internalType": "uint256",
          "name": "_toTokenId",
          "type": "uint256"
        }
      ],
      "name": "BatchMetadataUpdate",
      "type": "event"
    },
    {
      "anonymous": false,
      "inputs": [
        {
          "indexed": false,
          "internalType": "uint256",
          "name": "_tokenId",
          "type": "uint256"
        }
      ],
      "name": "MetadataUpdate",
      "type": "event"
    },
    {
      "anonymous": false,
      "inputs": [
        {
          "indexed": true,
          "internalType": "address",
          "name": "previousOwner",
          "type": "address"
        },
        {
          "indexed": true,
          "internalType": "address",
          "name": "newOwner",
          "type": "address"
        }
      ],
      "name": "OwnershipTransferred",
      "type": "event"
    },
    {
      "anonymous": false,
      "inputs": [
        {
          "indexed": true,
          "internalType": "address",
          "name": "from",
          "type": "address"
        },
        {
          "indexed": true,
          "internalType": "address",
          "name": "to",
          "type": "address"
        },
        {
          "indexed": true,
          "internalType": "uint256",
          "name": "tokenId",
          "type": "uint256"
        }
      ],
      "name": "Transfer",
      "type": "event"
    },
    {
      "inputs": [
        {
          "internalType": "address",
          "name": "to",
          "type": "address"
        },
        {
          "internalType": "uint256",
          "name": "tokenId",
          "type": "uint256"
        }
      ],
      "name": "approve",
      "outputs": [],
      "stateMutability": "nonpayable",
      "type": "function"
    },
    {
      "inputs": [
        {
          "internalType": "address",
          "name": "owner",
          "type": "address"
        }
      ],
      "name": "balanceOf",
      "outputs": [
        {
          "internalType": "uint256",
          "name": "",
          "type": "uint256"
        }
      ],
      "stateMutability": "view",
      "type": "function"
    },
    {
      "inputs": [
        {
          "internalType": "uint256",
          "name": "tokenId",
          "type": "uint256"
        }
      ],
      "name": "burn",
      "outputs": [],
      "stateMutability": "nonpayable",
      "type": "function"
    },
    {
      "inputs": [
        {
          "internalType": "uint256",
          "name": "tokenId",
          "type": "uint256"
        }
      ],
      "name": "getApproved",
      "outputs": [
        {
          "internalType": "address",
          "name": "",
          "type": "address"
        }
      ],
      "stateMutability": "view",
      "type": "function"
    },
    {
      "inputs": [
        {
          "internalType": "address",
          "name": "owner",
          "type": "address"
        },
        {
          "internalType": "address",
          "name": "operator",
          "type": "address"
        }
      ],
      "name": "isApprovedForAll",
      "outputs": [
        {
          "internalType": "bool",
          "name": "",
          "type": "bool"
        }
      ],
      "stateMutability": "view",
      "type": "function"
    },
    {
      "inputs": [],
      "name": "name",
      "outputs": [
        {
          "internalType": "string",
          "name": "",
          "type": "string"
        }
      ],
      "stateMutability": "view",
      "type": "function"
    },
    {
      "inputs": [],
      "name": "owner",
      "outputs": [
        {
          "internalType": "address",
          "name": "",
          "type": "address"
        }
      ],
      "stateMutability": "view",
      "type": "function"
    },
    {
      "inputs": [
        {
          "internalType": "uint256",
          "name": "tokenId",
          "type": "uint256"
        }
      ],
      "name": "ownerOf",
      "outputs": [
        {
          "internalType": "address",
          "name": "",
          "type": "address"
        }
      ],
      "stateMutability": "view",
      "type": "function"
    },
    {
      "inputs": [],
      "name": "renounceOwnership",
      "outputs": [],
      "stateMutability": "nonpayable",
      "type": "function"
    },
    {
      "inputs": [
        {
          "internalType": "uint256",
          "name": "",
          "type": "uint256"
        },
        {
          "internalType": "uint256",
          "name": "value",
          "type": "uint256"
        }
      ],
      "name": "royaltyInfo",
      "outputs": [
        {
          "internalType": "address",
          "name": "receiver",
          "type": "address"
        },
        {
          "internalType": "uint256",
          "name": "royaltyAmount",
          "type": "uint256"
        }
      ],
      "stateMutability": "view",
      "type": "function"
    },
    {
      "inputs": [
        {
          "internalType": "address",
          "name": "to",
          "type": "address"
        },
        {
          "internalType": "string",
          "name": "uri",
          "type": "string"
        }
      ],
      "name": "safeMint",
      "outputs": [],
      "stateMutability": "nonpayable",
      "type": "function"
    },
    {
      "inputs": [
        {
          "internalType": "address",
          "name": "from",
          "type": "address"
        },
        {
          "internalType": "address",
          "name": "to",
          "type": "address"
        },
        {
          "internalType": "uint256",
          "name": "tokenId",
          "type": "uint256"
        }
      ],
      "name": "safeTransferFrom",
      "outputs": [],
      "stateMutability": "nonpayable",
      "type": "function"
    },
    {
      "inputs": [
        {
          "internalType": "address",
          "name": "from",
          "type": "address"
        },
        {
          "internalType": "address",
          "name": "to",
          "type": "address"
        },
        {
          "internalType": "uint256",
          "name": "tokenId",
          "type": "uint256"
        },
        {
          "internalType": "bytes",
          "name": "data",
          "type": "bytes"
        }
      ],
      "name": "safeTransferFrom",
      "outputs": [],
      "stateMutability": "nonpayable",
      "type": "function"
    },
    {
      "inputs": [
        {
          "internalType": "address",
          "name": "operator",
          "type": "address"
        },
        {
          "internalType": "bool",
          "name": "approved",
          "type": "bool"
        }
      ],
      "name": "setApprovalForAll",
      "outputs": [],
      "stateMutability": "nonpayable",
      "type": "function"
    },
    {
      "inputs": [
        {
          "internalType": "bytes4",
          "name": "interfaceId",
          "type": "bytes4"
        }
      ],
      "name": "supportsInterface",
      "outputs": [
        {
          "internalType": "bool",
          "name": "",
          "type": "bool"
        }
      ],
      "stateMutability": "view",
      "type": "function"
    },
    {
      "inputs": [],
      "name": "symbol",
      "outputs": [
        {
          "internalType": "string",
          "name": "",
          "type": "string"
        }
      ],
      "stateMutability": "view",
      "type": "function"
    },
    {
      "inputs": [
        {
          "internalType": "uint256",
          "name": "index",
          "type": "uint256"
        }
      ],
      "name": "tokenByIndex",
      "outputs": [
        {
          "internalType": "uint256",
          "name": "",
          "type": "uint256"
        }
      ],
      "stateMutability": "view",
      "type": "function"
    },
    {
      "inputs": [
        {
          "internalType": "address",
          "name": "owner",
          "type": "address"
        },
        {
          "internalType": "uint256",
          "name": "index",
          "type": "uint256"
        }
      ],
      "name": "tokenOfOwnerByIndex",
      "outputs": [
        {
          "internalType": "uint256",
          "name": "",
          "type": "uint256"
        }
      ],
      "stateMutability": "view",
      "type": "function"
    },
    {
      "inputs": [
        {
          "internalType": "uint256",
          "name": "tokenId",
          "type": "uint256"
        }
      ],
      "name": "tokenURI",
      "outputs": [
        {
          "internalType": "string",
          "name": "",
          "type": "string"
        }
      ],
      "stateMutability": "view",
      "type": "function"
    },
    {
      "inputs": [],
      "name": "totalSupply",
      "outputs": [
        {
          "internalType": "uint256",
          "name": "",
          "type": "uint256"
        }
      ],
      "stateMutability": "view",
      "type": "function"
    },
    {
      "inputs": [
        {
          "internalType": "address",
          "name": "from",
          "type": "address"
        },
        {
          "internalType": "address",
          "name": "to",
          "type": "address"
        },
        {
          "internalType": "uint256",
          "name": "tokenId",
          "type": "uint256"
        }
      ],
      "name": "transferFrom",
      "outputs": [],
      "stateMutability": "nonpayable",
      "type": "function"
    },
    {
      "inputs": [
        {
          "internalType": "address",
          "name": "newOwner",
          "type": "address"
        }
      ],
      "name": "transferOwnership",
      "outputs": [],
      "stateMutability": "nonpayable",
      "type": "function"
    }
  ],
  "transactionHash": "0x4f5c0f092f657add78f4c10769d520dad1ab32e9001e7bc7c873cc6d020c8eef",
  "args": [
    "0xd63ed6E274bedb34D9666B8f62ed32a73C43DD9e",
    "Sigirya NFT",
    "SIG",
    400
  ],
  "numDeployments": 1,
  "solcInputHash": "1c26bc71f8da80045465d2e013b80897",
  "bytecode": "0x60806040526001600e5534801562000015575f80fd5b5060405162001cd838038062001cd8833981016040819052620000389162000246565b8383835f6200004883826200035e565b5060016200005782826200035e565b5050506001600160a01b0381166200008957604051631e4fbdf760e01b81525f60048201526024015b60405180910390fd5b6200009481620000bd565b50620000b3620000ac600b546001600160a01b031690565b826200010e565b5050505062000426565b600b80546001600160a01b038381166001600160a01b0319831681179093556040519116919082907f8be0079c531659141344cd1fd0a4f28419497f9722a3daafe3b4186f6b6457e0905f90a35050565b612710811115620001625760405162461bcd60e51b815260206004820152601a60248201527f45524332393831526f79616c746965733a20546f6f2068696768000000000000604482015260640162000080565b600c80546001600160a01b0319166001600160a01b039390931692909217909155600d55565b634e487b7160e01b5f52604160045260245ffd5b5f82601f830112620001ac575f80fd5b81516001600160401b0380821115620001c957620001c962000188565b604051601f8301601f19908116603f01168101908282118183101715620001f457620001f462000188565b8160405283815260209250868385880101111562000210575f80fd5b5f91505b8382101562000233578582018301518183018401529082019062000214565b5f93810190920192909252949350505050565b5f805f80608085870312156200025a575f80fd5b84516001600160a01b038116811462000271575f80fd5b60208601519094506001600160401b03808211156200028e575f80fd5b6200029c888389016200019c565b94506040870151915080821115620002b2575f80fd5b50620002c1878288016200019c565b606096909601519497939650505050565b600181811c90821680620002e757607f821691505b6020821081036200030657634e487b7160e01b5f52602260045260245ffd5b50919050565b601f82111562000359575f81815260208120601f850160051c81016020861015620003345750805b601f850160051c820191505b81811015620003555782815560010162000340565b5050505b505050565b81516001600160401b038111156200037a576200037a62000188565b62000392816200038b8454620002d2565b846200030c565b602080601f831160018114620003c8575f8415620003b05750858301515b5f19600386901b1c1916600185901b17855562000355565b5f85815260208120601f198616915b82811015620003f857888601518255948401946001909101908401620003d7565b50858210156200041657878501515f19600388901b60f8161c191681555b5050505050600190811b01905550565b6118a480620004345f395ff3fe608060405234801561000f575f80fd5b506004361061013d575f3560e01c80636352211e116100b4578063a22cb46511610079578063a22cb465146102a8578063b88d4fde146102bb578063c87b56dd146102ce578063d204c45e146102e1578063e985e9c5146102f4578063f2fde38b14610307575f80fd5b80636352211e1461026157806370a0823114610274578063715018a6146102875780638da5cb5b1461028f57806395d89b41146102a0575f80fd5b806323b872dd1161010557806323b872dd146101d05780632a55205a146101e35780632f745c591461021557806342842e0e1461022857806342966c681461023b5780634f6ccce71461024e575f80fd5b806301ffc9a71461014157806306fdde0314610169578063081812fc1461017e578063095ea7b3146101a957806318160ddd146101be575b5f80fd5b61015461014f3660046112ff565b61031a565b60405190151581526020015b60405180910390f35b61017161032a565b6040516101609190611367565b61019161018c366004611379565b6103b9565b6040516001600160a01b039091168152602001610160565b6101bc6101b73660046113ab565b6103e0565b005b6008545b604051908152602001610160565b6101bc6101de3660046113d3565b6103ef565b6101f66101f136600461140c565b61047d565b604080516001600160a01b039093168352602083019190915201610160565b6101c26102233660046113ab565b6104b6565b6101bc6102363660046113d3565b610519565b6101bc610249366004611379565b610538565b6101c261025c366004611379565b610543565b61019161026f366004611379565b610598565b6101c261028236600461142c565b6105a2565b6101bc6105e7565b600b546001600160a01b0316610191565b6101716105fa565b6101bc6102b6366004611445565b610609565b6101bc6102c9366004611505565b610614565b6101716102dc366004611379565b61062b565b6101bc6102ef36600461157c565b610636565b6101546103023660046115da565b610668565b6101bc61031536600461142c565b610695565b5f610324826106d2565b92915050565b60605f80546103389061160b565b80601f01602080910402602001604051908101604052809291908181526020018280546103649061160b565b80156103af5780601f10610386576101008083540402835291602001916103af565b820191905f5260205f20905b81548152906001019060200180831161039257829003601f168201915b5050505050905090565b5f6103c3826106f6565b505f828152600460205260409020546001600160a01b0316610324565b6103eb82823361072e565b5050565b6001600160a01b03821661041d57604051633250574960e11b81525f60048201526024015b60405180910390fd5b5f61042983833361073b565b9050836001600160a01b0316816001600160a01b031614610477576040516364283d7b60e01b81526001600160a01b0380861660048301526024820184905282166044820152606401610414565b50505050565b600c54600d545f9182916001600160a01b0390911690612710906104a19086611657565b6104ab919061166e565b915091509250929050565b5f6104c0836105a2565b82106104f15760405163295f44f760e21b81526001600160a01b038416600482015260248101839052604401610414565b506001600160a01b03919091165f908152600660209081526040808320938352929052205490565b61053383838360405180602001604052805f815250610614565b505050565b6103eb5f823361073b565b5f61054d60085490565b82106105755760405163295f44f760e21b81525f600482015260248101839052604401610414565b600882815481106105885761058861168d565b905f5260205f2001549050919050565b5f610324826106f6565b5f6001600160a01b0382166105cc576040516322718ad960e21b81525f6004820152602401610414565b506001600160a01b03165f9081526003602052604090205490565b6105ef61074f565b6105f85f61077c565b565b6060600180546103389061160b565b6103eb3383836107cd565b61061f8484846103ef565b6104778484848461086b565b606061032482610991565b61063e61074f565b600e80545f918261064e836116a1565b91905055905061065e8382610a94565b6105338183610aad565b6001600160a01b039182165f90815260056020908152604080832093909416825291909152205460ff1690565b61069d61074f565b6001600160a01b0381166106c657604051631e4fbdf760e01b81525f6004820152602401610414565b6106cf8161077c565b50565b5f6001600160e01b0319821663152a902d60e11b1480610324575061032482610afc565b5f818152600260205260408120546001600160a01b03168061032457604051637e27328960e01b815260048101849052602401610414565b6105338383836001610b20565b5f610747848484610c24565b949350505050565b600b546001600160a01b031633146105f85760405163118cdaa760e01b8152336004820152602401610414565b600b80546001600160a01b038381166001600160a01b0319831681179093556040519116919082907f8be0079c531659141344cd1fd0a4f28419497f9722a3daafe3b4186f6b6457e0905f90a35050565b6001600160a01b0382166107ff57604051630b61174360e31b81526001600160a01b0383166004820152602401610414565b6001600160a01b038381165f81815260056020908152604080832094871680845294825291829020805460ff191686151590811790915591519182527f17307eab39ab6107e8899845ad3d59bd9653f200f220920489ca2b5937696c31910160405180910390a3505050565b6001600160a01b0383163b1561047757604051630a85bd0160e11b81526001600160a01b0384169063150b7a02906108ad9033908890879087906004016116b9565b6020604051808303815f875af19250505080156108e7575060408051601f3d908101601f191682019092526108e4918101906116f5565b60015b61094e573d808015610914576040519150601f19603f3d011682016040523d82523d5f602084013e610919565b606091505b5080515f0361094657604051633250574960e11b81526001600160a01b0385166004820152602401610414565b805181602001fd5b6001600160e01b03198116630a85bd0160e11b1461098a57604051633250574960e11b81526001600160a01b0385166004820152602401610414565b5050505050565b606061099c826106f6565b505f828152600a6020526040812080546109b59061160b565b80601f01602080910402602001604051908101604052809291908181526020018280546109e19061160b565b8015610a2c5780601f10610a0357610100808354040283529160200191610a2c565b820191905f5260205f20905b815481529060010190602001808311610a0f57829003601f168201915b505050505090505f610a4860408051602081019091525f815290565b905080515f03610a59575092915050565b815115610a8b578082604051602001610a73929190611710565b60405160208183030381529060405292505050919050565b61074784610cef565b6103eb828260405180602001604052805f815250610d60565b5f828152600a60205260409020610ac4828261178b565b506040518281527ff8e1a15aba9398e019f0b49df1a4fde98ee17ae345cb5f6b5e2c27f5033e8ce79060200160405180910390a15050565b5f6001600160e01b03198216632483248360e11b1480610324575061032482610d76565b8080610b3457506001600160a01b03821615155b15610bf5575f610b43846106f6565b90506001600160a01b03831615801590610b6f5750826001600160a01b0316816001600160a01b031614155b8015610b825750610b808184610668565b155b15610bab5760405163a9fbf51f60e01b81526001600160a01b0384166004820152602401610414565b8115610bf35783856001600160a01b0316826001600160a01b03167f8c5be1e5ebec7d5bd14f71427d1e84f3dd0314c0f7b2291e5b200ac8c7c3b92560405160405180910390a45b505b50505f90815260046020526040902080546001600160a01b0319166001600160a01b0392909216919091179055565b5f80610c31858585610d9a565b90506001600160a01b038116610c8d57610c8884600880545f838152600960205260408120829055600182018355919091527ff3f7a9fe364faab93b216da50a3214154f22a0a2b415b23a84c8169e8b636ee30155565b610cb0565b846001600160a01b0316816001600160a01b031614610cb057610cb08185610e8c565b6001600160a01b038516610ccc57610cc784610f19565b610747565b846001600160a01b0316816001600160a01b031614610747576107478585610fc0565b6060610cfa826106f6565b505f610d1060408051602081019091525f815290565b90505f815111610d2e5760405180602001604052805f815250610d59565b80610d388461100e565b604051602001610d49929190611710565b6040516020818303038152906040525b9392505050565b610d6a838361109e565b6105335f84848461086b565b5f6001600160e01b0319821663780e9d6360e01b14806103245750610324826110ff565b5f828152600260205260408120546001600160a01b0390811690831615610dc657610dc681848661114e565b6001600160a01b03811615610e0057610de15f855f80610b20565b6001600160a01b0381165f90815260036020526040902080545f190190555b6001600160a01b03851615610e2e576001600160a01b0385165f908152600360205260409020805460010190555b5f8481526002602052604080822080546001600160a01b0319166001600160a01b0389811691821790925591518793918516917fddf252ad1be2c89b69c2b068fc378daa952ba7f163c4a11628f55a4df523b3ef91a4949350505050565b5f610e96836105a2565b5f83815260076020526040902054909150808214610ee7576001600160a01b0384165f9081526006602090815260408083208584528252808320548484528184208190558352600790915290208190555b505f9182526007602090815260408084208490556001600160a01b039094168352600681528383209183525290812055565b6008545f90610f2a90600190611847565b5f8381526009602052604081205460088054939450909284908110610f5157610f5161168d565b905f5260205f20015490508060088381548110610f7057610f7061168d565b5f918252602080832090910192909255828152600990915260408082208490558582528120556008805480610fa757610fa761185a565b600190038181905f5260205f20015f9055905550505050565b5f6001610fcc846105a2565b610fd69190611847565b6001600160a01b039093165f908152600660209081526040808320868452825280832085905593825260079052919091209190915550565b60605f61101a836111b2565b60010190505f8167ffffffffffffffff8111156110395761103961147e565b6040519080825280601f01601f191660200182016040528015611063576020820181803683370190505b5090508181016020015b5f19016f181899199a1a9b1b9c1cb0b131b232b360811b600a86061a8153600a850494508461106d57509392505050565b6001600160a01b0382166110c757604051633250574960e11b81525f6004820152602401610414565b5f6110d383835f61073b565b90506001600160a01b03811615610533576040516339e3563760e11b81525f6004820152602401610414565b5f6001600160e01b031982166380ac58cd60e01b148061112f57506001600160e01b03198216635b5e139f60e01b145b8061032457506301ffc9a760e01b6001600160e01b0319831614610324565b611159838383611289565b610533576001600160a01b03831661118757604051637e27328960e01b815260048101829052602401610414565b60405163177e802f60e01b81526001600160a01b038316600482015260248101829052604401610414565b5f8072184f03e93ff9f4daa797ed6e38ed64bf6a1f0160401b83106111f05772184f03e93ff9f4daa797ed6e38ed64bf6a1f0160401b830492506040015b6d04ee2d6d415b85acef8100000000831061121c576d04ee2d6d415b85acef8100000000830492506020015b662386f26fc10000831061123a57662386f26fc10000830492506010015b6305f5e1008310611252576305f5e100830492506008015b612710831061126657612710830492506004015b60648310611278576064830492506002015b600a83106103245760010192915050565b5f6001600160a01b038316158015906107475750826001600160a01b0316846001600160a01b031614806112c257506112c28484610668565b806107475750505f908152600460205260409020546001600160a01b03908116911614919050565b6001600160e01b0319811681146106cf575f80fd5b5f6020828403121561130f575f80fd5b8135610d59816112ea565b5f5b8381101561133457818101518382015260200161131c565b50505f910152565b5f815180845261135381602086016020860161131a565b601f01601f19169290920160200192915050565b602081525f610d59602083018461133c565b5f60208284031215611389575f80fd5b5035919050565b80356001600160a01b03811681146113a6575f80fd5b919050565b5f80604083850312156113bc575f80fd5b6113c583611390565b946020939093013593505050565b5f805f606084860312156113e5575f80fd5b6113ee84611390565b92506113fc60208501611390565b9150604084013590509250925092565b5f806040838503121561141d575f80fd5b50508035926020909101359150565b5f6020828403121561143c575f80fd5b610d5982611390565b5f8060408385031215611456575f80fd5b61145f83611390565b915060208301358015158114611473575f80fd5b809150509250929050565b634e487b7160e01b5f52604160045260245ffd5b5f67ffffffffffffffff808411156114ac576114ac61147e565b604051601f8501601f19908116603f011681019082821181831017156114d4576114d461147e565b816040528093508581528686860111156114ec575f80fd5b858560208301375f602087830101525050509392505050565b5f805f8060808587031215611518575f80fd5b61152185611390565b935061152f60208601611390565b925060408501359150606085013567ffffffffffffffff811115611551575f80fd5b8501601f81018713611561575f80fd5b61157087823560208401611492565b91505092959194509250565b5f806040838503121561158d575f80fd5b61159683611390565b9150602083013567ffffffffffffffff8111156115b1575f80fd5b8301601f810185136115c1575f80fd5b6115d085823560208401611492565b9150509250929050565b5f80604083850312156115eb575f80fd5b6115f483611390565b915061160260208401611390565b90509250929050565b600181811c9082168061161f57607f821691505b60208210810361163d57634e487b7160e01b5f52602260045260245ffd5b50919050565b634e487b7160e01b5f52601160045260245ffd5b808202811582820484141761032457610324611643565b5f8261168857634e487b7160e01b5f52601260045260245ffd5b500490565b634e487b7160e01b5f52603260045260245ffd5b5f600182016116b2576116b2611643565b5060010190565b6001600160a01b03858116825284166020820152604081018390526080606082018190525f906116eb9083018461133c565b9695505050505050565b5f60208284031215611705575f80fd5b8151610d59816112ea565b5f835161172181846020880161131a565b83519083019061173581836020880161131a565b01949350505050565b601f821115610533575f81815260208120601f850160051c810160208610156117645750805b601f850160051c820191505b8181101561178357828155600101611770565b505050505050565b815167ffffffffffffffff8111156117a5576117a561147e565b6117b9816117b3845461160b565b8461173e565b602080601f8311600181146117ec575f84156117d55750858301515b5f19600386901b1c1916600185901b178555611783565b5f85815260208120601f198616915b8281101561181a578886015182559484019460019091019084016117fb565b508582101561183757878501515f19600388901b60f8161c191681555b5050505050600190811b01905550565b8181038181111561032457610324611643565b634e487b7160e01b5f52603160045260245ffdfea2646970667358221220851a0e5f78c2c6c8fe0c7eca409ac185202db694ce28b5e3de6f89518ee8fd4464736f6c63430008140033",
  "devdoc": {
    "errors": {
      "ERC721EnumerableForbiddenBatchMint()": [
        {
          "details": "Batch mint is not allowed."
        }
      ],
      "ERC721IncorrectOwner(address,uint256,address)": [
        {
          "details": "Indicates an error related to the ownership over a particular token. Used in transfers.",
          "params": {
            "owner": "Address of the current owner of a token.",
            "sender": "Address whose tokens are being transferred.",
            "tokenId": "Identifier number of a token."
          }
        }
      ],
      "ERC721InsufficientApproval(address,uint256)": [
        {
          "details": "Indicates a failure with the `operator`s approval. Used in transfers.",
          "params": {
            "operator": "Address that may be allowed to operate on tokens without being their owner.",
            "tokenId": "Identifier number of a token."
          }
        }
      ],
      "ERC721InvalidApprover(address)": [
        {
          "details": "Indicates a failure with the `approver` of a token to be approved. Used in approvals.",
          "params": {
            "approver": "Address initiating an approval operation."
          }
        }
      ],
      "ERC721InvalidOperator(address)": [
        {
          "details": "Indicates a failure with the `operator` to be approved. Used in approvals.",
          "params": {
            "operator": "Address that may be allowed to operate on tokens without being their owner."
          }
        }
      ],
      "ERC721InvalidOwner(address)": [
        {
          "details": "Indicates that an address can't be an owner. For example, `address(0)` is a forbidden owner in EIP-20. Used in balance queries.",
          "params": {
            "owner": "Address of the current owner of a token."
          }
        }
      ],
      "ERC721InvalidReceiver(address)": [
        {
          "details": "Indicates a failure with the token `receiver`. Used in transfers.",
          "params": {
            "receiver": "Address to which tokens are being transferred."
          }
        }
      ],
      "ERC721InvalidSender(address)": [
        {
          "details": "Indicates a failure with the token `sender`. Used in transfers.",
          "params": {
            "sender": "Address whose tokens are being transferred."
          }
        }
      ],
      "ERC721NonexistentToken(uint256)": [
        {
          "details": "Indicates a `tokenId` whose `owner` is the zero address.",
          "params": {
            "tokenId": "Identifier number of a token."
          }
        }
      ],
      "ERC721OutOfBoundsIndex(address,uint256)": [
        {
          "details": "An `owner`'s token query was out of bounds for `index`. NOTE: The owner being `address(0)` indicates a global out of bounds index."
        }
      ],
      "OwnableInvalidOwner(address)": [
        {
          "details": "The owner is not a valid owner account. (eg. `address(0)`)"
        }
      ],
      "OwnableUnauthorizedAccount(address)": [
        {
          "details": "The caller account is not authorized to perform an operation."
        }
      ]
    },
    "events": {
      "Approval(address,address,uint256)": {
        "details": "Emitted when `owner` enables `approved` to manage the `tokenId` token."
      },
      "ApprovalForAll(address,address,bool)": {
        "details": "Emitted when `owner` enables or disables (`approved`) `operator` to manage all of its assets."
      },
      "BatchMetadataUpdate(uint256,uint256)": {
        "details": "This event emits when the metadata of a range of tokens is changed. So that the third-party platforms such as NFT market could timely update the images and related attributes of the NFTs."
      },
      "MetadataUpdate(uint256)": {
        "details": "This event emits when the metadata of a token is changed. So that the third-party platforms such as NFT market could timely update the images and related attributes of the NFT."
      },
      "Transfer(address,address,uint256)": {
        "details": "Emitted when `tokenId` token is transferred from `from` to `to`."
      }
    },
    "kind": "dev",
    "methods": {
      "approve(address,uint256)": {
        "details": "See {IERC721-approve}."
      },
      "balanceOf(address)": {
        "details": "See {IERC721-balanceOf}."
      },
      "burn(uint256)": {
        "details": "Burns `tokenId`. See {ERC721-_burn}. Requirements: - The caller must own `tokenId` or be an approved operator."
      },
      "getApproved(uint256)": {
        "details": "See {IERC721-getApproved}."
      },
      "isApprovedForAll(address,address)": {
        "details": "See {IERC721-isApprovedForAll}."
      },
      "name()": {
        "details": "See {IERC721Metadata-name}."
      },
      "owner()": {
        "details": "Returns the address of the current owner."
      },
      "ownerOf(uint256)": {
        "details": "See {IERC721-ownerOf}."
      },
      "renounceOwnership()": {
        "details": "Leaves the contract without owner. It will not be possible to call `onlyOwner` functions. Can only be called by the current owner. NOTE: Renouncing ownership will leave the contract without an owner, thereby disabling any functionality that is only available to the owner."
      },
      "royaltyInfo(uint256,uint256)": {
        "params": {
          "_tokenId": "- the NFT asset queried for royalty information",
          "_value": "- the sale price of the NFT asset specified by _tokenId"
        },
        "returns": {
          "receiver": "- address of who should be sent the royalty payment",
          "royaltyAmount": "- the royalty payment amount for value sale price"
        }
      },
      "safeTransferFrom(address,address,uint256)": {
        "details": "See {IERC721-safeTransferFrom}."
      },
      "safeTransferFrom(address,address,uint256,bytes)": {
        "details": "See {IERC721-safeTransferFrom}."
      },
      "setApprovalForAll(address,bool)": {
        "details": "See {IERC721-setApprovalForAll}."
      },
      "symbol()": {
        "details": "See {IERC721Metadata-symbol}."
      },
      "tokenByIndex(uint256)": {
        "details": "See {IERC721Enumerable-tokenByIndex}."
      },
      "tokenOfOwnerByIndex(address,uint256)": {
        "details": "See {IERC721Enumerable-tokenOfOwnerByIndex}."
      },
      "totalSupply()": {
        "details": "See {IERC721Enumerable-totalSupply}."
      },
      "transferFrom(address,address,uint256)": {
        "details": "See {IERC721-transferFrom}."
      },
      "transferOwnership(address)": {
        "details": "Transfers ownership of the contract to a new account (`newOwner`). Can only be called by the current owner."
      }
    },
    "version": 1
  },
  "userdoc": {
    "kind": "user",
    "methods": {},
    "version": 1
  },
  "storageLayout": {
    "storage": [
      {
        "astId": 349,
        "contract": "contracts/NFT.sol:NFT",
        "label": "_name",
        "offset": 0,
        "slot": "0",
        "type": "t_string_storage"
      },
      {
        "astId": 351,
        "contract": "contracts/NFT.sol:NFT",
        "label": "_symbol",
        "offset": 0,
        "slot": "1",
        "type": "t_string_storage"
      },
      {
        "astId": 355,
        "contract": "contracts/NFT.sol:NFT",
        "label": "_owners",
        "offset": 0,
        "slot": "2",
        "type": "t_mapping(t_uint256,t_address)"
      },
      {
        "astId": 359,
        "contract": "contracts/NFT.sol:NFT",
        "label": "_balances",
        "offset": 0,
        "slot": "3",
        "type": "t_mapping(t_address,t_uint256)"
      },
      {
        "astId": 363,
        "contract": "contracts/NFT.sol:NFT",
        "label": "_tokenApprovals",
        "offset": 0,
        "slot": "4",
        "type": "t_mapping(t_uint256,t_address)"
      },
      {
        "astId": 369,
        "contract": "contracts/NFT.sol:NFT",
        "label": "_operatorApprovals",
        "offset": 0,
        "slot": "5",
        "type": "t_mapping(t_address,t_mapping(t_address,t_bool))"
      },
      {
        "astId": 1508,
        "contract": "contracts/NFT.sol:NFT",
        "label": "_ownedTokens",
        "offset": 0,
        "slot": "6",
        "type": "t_mapping(t_address,t_mapping(t_uint256,t_uint256))"
      },
      {
        "astId": 1512,
        "contract": "contracts/NFT.sol:NFT",
        "label": "_ownedTokensIndex",
        "offset": 0,
        "slot": "7",
        "type": "t_mapping(t_uint256,t_uint256)"
      },
      {
        "astId": 1515,
        "contract": "contracts/NFT.sol:NFT",
        "label": "_allTokens",
        "offset": 0,
        "slot": "8",
        "type": "t_array(t_uint256)dyn_storage"
      },
      {
        "astId": 1519,
        "contract": "contracts/NFT.sol:NFT",
        "label": "_allTokensIndex",
        "offset": 0,
        "slot": "9",
        "type": "t_mapping(t_uint256,t_uint256)"
      },
      {
        "astId": 1901,
        "contract": "contracts/NFT.sol:NFT",
        "label": "_tokenURIs",
        "offset": 0,
        "slot": "10",
        "type": "t_mapping(t_uint256,t_string_storage)"
      },
      {
        "astId": 8,
        "contract": "contracts/NFT.sol:NFT",
        "label": "_owner",
        "offset": 0,
        "slot": "11",
        "type": "t_address"
      },
      {
        "astId": 3550,
        "contract": "contracts/NFT.sol:NFT",
        "label": "_royaltiesRecipient",
        "offset": 0,
        "slot": "12",
        "type": "t_address"
      },
      {
        "astId": 3552,
        "contract": "contracts/NFT.sol:NFT",
        "label": "_royaltiesValue",
        "offset": 0,
        "slot": "13",
        "type": "t_uint256"
      },
      {
        "astId": 3661,
        "contract": "contracts/NFT.sol:NFT",
        "label": "_nextTokenId",
        "offset": 0,
        "slot": "14",
        "type": "t_uint256"
      }
    ],
    "types": {
      "t_address": {
        "encoding": "inplace",
        "label": "address",
        "numberOfBytes": "20"
      },
      "t_array(t_uint256)dyn_storage": {
        "base": "t_uint256",
        "encoding": "dynamic_array",
        "label": "uint256[]",
        "numberOfBytes": "32"
      },
      "t_bool": {
        "encoding": "inplace",
        "label": "bool",
        "numberOfBytes": "1"
      },
      "t_mapping(t_address,t_bool)": {
        "encoding": "mapping",
        "key": "t_address",
        "label": "mapping(address => bool)",
        "numberOfBytes": "32",
        "value": "t_bool"
      },
      "t_mapping(t_address,t_mapping(t_address,t_bool))": {
        "encoding": "mapping",
        "key": "t_address",
        "label": "mapping(address => mapping(address => bool))",
        "numberOfBytes": "32",
        "value": "t_mapping(t_address,t_bool)"
      },
      "t_mapping(t_address,t_mapping(t_uint256,t_uint256))": {
        "encoding": "mapping",
        "key": "t_address",
        "label": "mapping(address => mapping(uint256 => uint256))",
        "numberOfBytes": "32",
        "value": "t_mapping(t_uint256,t_uint256)"
      },
      "t_mapping(t_address,t_uint256)": {
        "encoding": "mapping",
        "key": "t_address",
        "label": "mapping(address => uint256)",
        "numberOfBytes": "32",
        "value": "t_uint256"
      },
      "t_mapping(t_uint256,t_address)": {
        "encoding": "mapping",
        "key": "t_uint256",
        "label": "mapping(uint256 => address)",
        "numberOfBytes": "32",
        "value": "t_address"
      },
      "t_mapping(t_uint256,t_string_storage)": {
        "encoding": "mapping",
        "key": "t_uint256",
        "label": "mapping(uint256 => string)",
        "numberOfBytes": "32",
        "value": "t_string_storage"
      },
      "t_mapping(t_uint256,t_uint256)": {
        "encoding": "mapping",
        "key": "t_uint256",
        "label": "mapping(uint256 => uint256)",
        "numberOfBytes": "32",
        "value": "t_uint256"
      },
      "t_string_storage": {
        "encoding": "bytes",
        "label": "string",
        "numberOfBytes": "32"
      },
      "t_uint256": {
        "encoding": "inplace",
        "label": "uint256",
        "numberOfBytes": "32"
      }
    }
  }
}